:020000040800F2
:1030000008040020453100084D3100084F31000808
:10301000513100085331000855310008000000000C
:103020000000000000000000000000005731000810
:1030300059310008000000005B3100085D310008D4
:103040005F3100085F3100085F3100085F31000820
:103050005F3100085F3100085F3100085F31000810
:103060005F3100085F3100085F3100085F31000800
:103070005F3100085F3100085F3100085F310008F0
:103080005F3100085F3100085F3100085F310008E0
:103090005F3100085F3100085F3100085F310008D0
:1030A0005F3100085F3100085F3100085F310008C0
:1030B0005F3100085F310008593500085F310008B2
:1030C0005F3100085F3100085F3100085F310008A0
:1030D0005F3100085F3100085F3100085F31000890
:1030E0005F3100085F3100085F3100085F31000880
:1030F0005F3100085F3100085F3100085F31000870
:103100005F3100085F3100085F3100085F3100085F
:103110005F3100085F3100085F3100085F3100084F
:103120005F3100085F3100085F3100085F3100083F
:10313000DFF80CD000F02EF800480047793800087E
:10314000080400200648804706480047FEE7FEE7DF
:10315000FEE7FEE7FEE7FEE7FEE7FEE7FEE7FEE747
:10316000F93400083131000830B50B460146002023
:103170002022012409E021FA02F59D4205D303FA39
:1031800002F5491B04FA02F52844151EA2F10102BA
:10319000F1DC30BD064C074D06E0E06840F001036D
:1031A00094E8070098471034AC42F6D3FFF7C4FF09
:1031B00020390008403900082DE9F0410246002579
:1031C0000026002000230024002791F803C00CF003
:1031D0000F0591F803C00CF0100CBCF1000F03D0E8
:1031E00091F802C04CEA050591F800C0BCF1000F4F
:1031F00031D0146800202BE04FF0010C0CFA00F3E2
:10320000B1F800C00CEA03069E4220D183004FF0C3
:103210000F0C0CFA03F7BC4305FA03FC4CEA040458
:1032200091F803C0BCF1280F06D14FF0010C0CFA45
:1032300000FCC2F814C00AE091F803C0BCF1480FCA
:1032400005D14FF0010C0CFA00FCC2F810C0401C74
:103250000828D1D31460B1F800C0BCF1FF0F34DDF1
:10326000546800202EE000F1080C4FF0010808FA25
:103270000CF3B1F800C00CEA03069E4221D1830092
:103280004FF00F0C0CFA03F7BC4305FA03FC4CEAB1
:10329000040491F803C0BCF1280F05D100F1080C1B
:1032A00008FA0CF8C2F8148091F803C0BCF1480F7A
:1032B00007D100F1080C4FF0010808FA0CF8C2F829
:1032C0001080401C0828CED35460BDE8F08102462F
:1032D0000020D3680B400BB1012000E000207047B4
:1032E0000AB1016100E04161704710B500F003F8D8
:1032F00000F008F810BD10B50121802000F078F82A
:1033000010BD000008B510208DF803004020ADF876
:10331000000003208DF8020069460448FFF74CFFC7
:10332000012240210148FFF7DBFF08BD001C0140DE
:103330000A49096801F0010171B108498039096839
:1033400001F0010141B100BF4FF06041096800295F
:10335000FAD04FF06042107070470000800E00E01D
:1033600070B5002100230F22C47804B3154C2468E3
:1033700004F4E064C4F5E064210AC1F10403CA4026
:10338000447804FA03F184781440214309010E4C77
:103390000678A155047804F01F050124AC40057897
:1033A0006D11AD0005F1E025C5F8004109E0047894
:1033B00004F01F050124AC40044D0678761145F851
:1033C000264070BD0CED00E000E400E080E100E08C
:1033D00029B1064AD2690243044BDA6104E0034A88
:1033E000D2698243014BDA6170470000001002404D
:1033F00029B1064A92690243044B9A6104E0034AE8
:1034000092698243014B9A617047000000100240AC
:1034100010B500F001F810BD0CB50020019000902F
:103420003348006840F480303149086000BF3048BC
:10343000006800F4003000900198401C0190009852
:1034400018B90198B0F5A06FF1D12948006800F4CF
:10345000003010B10120009001E0002000900098A1
:10346000012843D12348006840F01000214908603A
:103470000846006820F0030008600846006840F035
:10348000020008601A4840681949486008464068C8
:1034900048600846406840F48060486008464068DC
:1034A00020F47C1048600846406840F4E81048600A
:1034B0000846006840F08070086000BF0C48006853
:1034C00000F000700028F9D00948406820F003009F
:1034D000074948600846406840F00200486000BF65
:1034E0000348406800F00C000828F9D10CBD00002A
:1034F000001002400020024010B51248006840F061
:10350000010010490860084640680F4908400D490D
:103510004860084600680D4908400A4908600846A6
:10352000006820F4802008600846406820F4FE000F
:1035300048604FF41F008860FFF76AFF04480549A0
:10354000086010BD001002400000FFF8FFFFF6FE0B
:103550000030000808ED00E010B50021134800F02D
:1035600039F80121114800F041F888B14021104894
:10357000FFF7ADFE044621460EA000F09BF80CB903
:10358000012000E00020024640210948FFF7A8FE84
:103590000121064800F018F80121044800F017F84E
:1035A0000121024800F016F810BD0000000800409C
:1035B000001C01400A4C4544207374617465206905
:1035C000733A202569000000CA4302827047CA434B
:1035D0000282704721B1028842F00102028004E0B9
:1035E00002884FF6FE731A400280704702460020A0
:1035F000138A0B400BB1012000E0002070471AB184
:1036000083890B43838102E083898B4383817047E5
:10361000002202881D4B98420ED01D4B98420BD0C1
:10362000B0F1804F08D01B4B984205D01A4B9842FE
:1036300002D01A4B984204D14FF68F731A404B8830
:103640001A43174B984207D0164B984204D04FF6B6
:10365000FF431A40CB881A4302808B8883850B88EE
:1036600003850A4B98420BD0094B984208D00E4B69
:10367000984205D00D4B984202D00D4B984201D193
:103680000B7A03860123838270470000002C0140DF
:10369000003401400004004000080040000C0040DD
:1036A0000010004000140040004001400044014070
:1036B000004801400FB4054B10B503A9044A029815
:1036C00000F018F810BC5DF814FB00004938000841
:1036D0000000002002E008C8121F08C1002AFAD129
:1036E00070477047002001E001C1121F002AFBD182
:1036F000704700002DE9FF4F89B09B460446002526
:1037000006E025280BD05A460B999047641C6D1C87
:1037100020780028F5D10DB02846BDE8F08F0027AD
:10372000B8460122474900E0074314F8013F203B17
:1037300002FA03F00842F7D120782E2819D114F8A4
:10374000010F47F004072A280ED06FF02F022078CF
:10375000A0F1300109290CD808EB880102EB4101E6
:1037600000EB0108641CF2E70A98641C50F8048B13
:103770000A9020780028CED0642808D0692806D086
:1037800075281ED05A460B9990476D1C58E00A992F
:103790004FF00A0901C90A91002802DA40422D219E
:1037A00002E0390504D52B218DF82010012103E01A
:1037B000F90704D02021F7E78A4608AE0DE0002182
:1037C000FAE70A994FF00A0901C90A91F7E7494651
:1037D000FFF7CAFC303106F8011D0028F7D1ADEB28
:1037E000060000F12009780701D44FF00108C84510
:1037F00002DDA8EB090000E000208046002706E07B
:1038000008A85A46C05D0B9990476D1C7F1C574510
:10381000F6DB04E030205A460B9990476D1CB8F156
:103820000001A8F10108F5DC05E016F8010B5A4685
:103830000B9990476D1CB9F10001A9F10109F4DC65
:10384000641C65E70928010070B505460C46084868
:10385000844203D1284600F01BF870BD054884421D
:1038600003D1284600F00EF8F7E74FF0FF30F4E7F9
:103870000000002004000020FFF737FD00F00EF8E4
:1038800000BFFEE700B503461846FFF751FD00BD37
:1038900000B503461846FFF74BFD00BD10B500F01C
:1038A00005F800F02DF800F007F810BD10B5012163
:1038B0000420FFF78DFD10BD0EB50020ADF8060009
:1038C00042F22730ADF800000020ADF8020041F6CA
:1038D0003F70ADF8040069460848FFF799FE0122E1
:1038E00011460648FFF78BFE01210448FFF76FFEE3
:1038F00001210248FFF76EFE0EBD000000080040E7
:1039000008B51E208DF8000000208DF801008DF80C
:10391000020001208DF803006846FFF721FD08BD75
:10392000403900080000002008000000D4360008DC
:10393000483900080800002000040000E4360008B0
:0839400000000000000000007F
:04000005080031318D
:00000001FF
